{
  "contractName": "EthSwap",
  "abi": [
    {
      "inputs": [
        {
          "internalType": "contract Token",
          "name": "_token",
          "type": "address"
        }
      ],
      "stateMutability": "nonpayable",
      "type": "constructor"
    },
    {
      "inputs": [],
      "name": "name",
      "outputs": [
        {
          "internalType": "string",
          "name": "",
          "type": "string"
        }
      ],
      "stateMutability": "view",
      "type": "function"
    },
    {
      "inputs": [],
      "name": "rate",
      "outputs": [
        {
          "internalType": "uint256",
          "name": "",
          "type": "uint256"
        }
      ],
      "stateMutability": "view",
      "type": "function"
    },
    {
      "inputs": [],
      "name": "token",
      "outputs": [
        {
          "internalType": "contract Token",
          "name": "",
          "type": "address"
        }
      ],
      "stateMutability": "view",
      "type": "function"
    },
    {
      "inputs": [],
      "name": "buyTokens",
      "outputs": [],
      "stateMutability": "payable",
      "type": "function"
    }
  ],
  "bytecode": "0x60806040526040518060400160405280601881526020017f4574685377617020496e7374616e742045786368616e676500000000000000008152506000908051906020019061004f9291906100ca565b50606460025534801561006157600080fd5b50604051610819380380610819833981810160405281019061008391906101e2565b80600160006101000a81548173ffffffffffffffffffffffffffffffffffffffff021916908373ffffffffffffffffffffffffffffffffffffffff1602179055505061026f565b8280546100d69061023e565b90600052602060002090601f0160209004810192826100f8576000855561013f565b82601f1061011157805160ff191683800117855561013f565b8280016001018555821561013f579182015b8281111561013e578251825591602001919060010190610123565b5b50905061014c9190610150565b5090565b5b80821115610169576000816000905550600101610151565b5090565b600080fd5b600073ffffffffffffffffffffffffffffffffffffffff82169050919050565b600061019d82610172565b9050919050565b60006101af82610192565b9050919050565b6101bf816101a4565b81146101ca57600080fd5b50565b6000815190506101dc816101b6565b92915050565b6000602082840312156101f8576101f761016d565b5b6000610206848285016101cd565b91505092915050565b7f4e487b7100000000000000000000000000000000000000000000000000000000600052602260045260246000fd5b6000600282049050600182168061025657607f821691505b6020821081036102695761026861020f565b5b50919050565b61059b8061027e6000396000f3fe60806040526004361061003f5760003560e01c806306fdde03146100445780632c4e722e1461006f578063d0febe4c1461009a578063fc0c546a146100a4575b600080fd5b34801561005057600080fd5b506100596100cf565b60405161006691906102d8565b60405180910390f35b34801561007b57600080fd5b5061008461015d565b6040516100919190610313565b60405180910390f35b6100a2610163565b005b3480156100b057600080fd5b506100b9610219565b6040516100c691906103ad565b60405180910390f35b600080546100dc906103f7565b80601f0160208091040260200160405190810160405280929190818152602001828054610108906103f7565b80156101555780601f1061012a57610100808354040283529160200191610155565b820191906000526020600020905b81548152906001019060200180831161013857829003601f168201915b505050505081565b60025481565b6000600254346101739190610457565b9050600160009054906101000a900473ffffffffffffffffffffffffffffffffffffffff1673ffffffffffffffffffffffffffffffffffffffff1663a9059cbb33836040518363ffffffff1660e01b81526004016101d29291906104d2565b6020604051808303816000875af11580156101f1573d6000803e3d6000fd5b505050506040513d601f19601f820116820180604052508101906102159190610538565b5050565b600160009054906101000a900473ffffffffffffffffffffffffffffffffffffffff1681565b600081519050919050565b600082825260208201905092915050565b60005b8381101561027957808201518184015260208101905061025e565b83811115610288576000848401525b50505050565b6000601f19601f8301169050919050565b60006102aa8261023f565b6102b4818561024a565b93506102c481856020860161025b565b6102cd8161028e565b840191505092915050565b600060208201905081810360008301526102f2818461029f565b905092915050565b6000819050919050565b61030d816102fa565b82525050565b60006020820190506103286000830184610304565b92915050565b600073ffffffffffffffffffffffffffffffffffffffff82169050919050565b6000819050919050565b600061037361036e6103698461032e565b61034e565b61032e565b9050919050565b600061038582610358565b9050919050565b60006103978261037a565b9050919050565b6103a78161038c565b82525050565b60006020820190506103c2600083018461039e565b92915050565b7f4e487b7100000000000000000000000000000000000000000000000000000000600052602260045260246000fd5b6000600282049050600182168061040f57607f821691505b602082108103610422576104216103c8565b5b50919050565b7f4e487b7100000000000000000000000000000000000000000000000000000000600052601160045260246000fd5b6000610462826102fa565b915061046d836102fa565b9250817fffffffffffffffffffffffffffffffffffffffffffffffffffffffffffffffff04831182151516156104a6576104a5610428565b5b828202905092915050565b60006104bc8261032e565b9050919050565b6104cc816104b1565b82525050565b60006040820190506104e760008301856104c3565b6104f46020830184610304565b9392505050565b600080fd5b60008115159050919050565b61051581610500565b811461052057600080fd5b50565b6000815190506105328161050c565b92915050565b60006020828403121561054e5761054d6104fb565b5b600061055c84828501610523565b9150509291505056fea2646970667358221220802813b88c4f11c2f51e22d71a6e6ad4306ee59ee0601c98fae4b49f40e6f3e964736f6c634300080e0033",
  "immutableReferences": {},
  "source": "pragma solidity ^0.8.0;\r\n\r\nimport \"./Token.sol\";\r\n\r\ncontract EthSwap {\r\n    string public name = \"EthSwap Instant Exchange\";\r\n    Token public token;\r\n    uint public rate = 100;\r\n\r\n    constructor(Token _token) public {\r\n        token = _token; //we do this in order to get the local value stored into the blockchain\r\n    }\r\n    \r\n    function buyTokens() public payable {\r\n        //Calculate the number of tokens to buy\r\n        uint tokenAmount = msg.value * rate;\r\n        token.transfer(msg.sender, tokenAmount);\r\n    }\r\n}\r\n\r\n",
  "sourcePath": "C:/eth_swap/src/contracts/EthSwap.sol",
  "compiler": {
    "name": "solc",
    "version": "0.8.14+commit.80d49f37.Emscripten.clang"
  },
  "schemaVersion": "3.4.1",
  "updatedAt": "2022-05-23T19:28:06.343Z",
  "devdoc": {
    "kind": "dev",
    "methods": {},
    "version": 1
  },
  "userdoc": {
    "kind": "user",
    "methods": {},
    "version": 1
  }
}